{
    "_format": "hh-sol-artifact-1",
    "contractName": "Shield",
    "sourceName": "contracts/Shield.sol",
    "abi": [
        {
            "anonymous": false,
            "inputs": [
                {
                    "indexed": true,
                    "internalType": "bytes32",
                    "name": "policyId",
                    "type": "bytes32"
                },
                {
                    "indexed": true,
                    "internalType": "address",
                    "name": "sender",
                    "type": "address"
                },
                {
                    "indexed": false,
                    "internalType": "uint256",
                    "name": "expiry",
                    "type": "uint256"
                },
                {
                    "indexed": false,
                    "internalType": "uint256",
                    "name": "maxAttempts",
                    "type": "uint256"
                }
            ],
            "name": "PolicyCreated",
            "type": "event"
        },
        {
            "anonymous": false,
            "inputs": [
                {
                    "indexed": true,
                    "internalType": "bytes32",
                    "name": "policyId",
                    "type": "bytes32"
                },
                {
                    "indexed": false,
                    "internalType": "bool",
                    "name": "success",
                    "type": "bool"
                }
            ],
            "name": "VerificationAttempt",
            "type": "event"
        },
        {
            "inputs": [
                {
                    "internalType": "bytes32",
                    "name": "policyId",
                    "type": "bytes32"
                },
                {
                    "internalType": "uint256",
                    "name": "expiry",
                    "type": "uint256"
                },
                {
                    "internalType": "uint256",
                    "name": "maxAttempts",
                    "type": "uint256"
                }
            ],
            "name": "createPolicy",
            "outputs": [],
            "stateMutability": "nonpayable",
            "type": "function"
        },
        {
            "inputs": [
                {
                    "internalType": "bytes32",
                    "name": "policyId",
                    "type": "bytes32"
                }
            ],
            "name": "isPolicyValid",
            "outputs": [
                {
                    "internalType": "bool",
                    "name": "",
                    "type": "bool"
                }
            ],
            "stateMutability": "view",
            "type": "function"
        },
        {
            "inputs": [
                {
                    "internalType": "bytes32",
                    "name": "policyId",
                    "type": "bytes32"
                },
                {
                    "internalType": "bool",
                    "name": "success",
                    "type": "bool"
                }
            ],
            "name": "logAttempt",
            "outputs": [],
            "stateMutability": "nonpayable",
            "type": "function"
        },
        {
            "inputs": [
                {
                    "internalType": "bytes32",
                    "name": "",
                    "type": "bytes32"
                }
            ],
            "name": "policies",
            "outputs": [
                {
                    "internalType": "address",
                    "name": "sender",
                    "type": "address"
                },
                {
                    "internalType": "uint256",
                    "name": "expiry",
                    "type": "uint256"
                },
                {
                    "internalType": "uint256",
                    "name": "maxAttempts",
                    "type": "uint256"
                },
                {
                    "internalType": "uint256",
                    "name": "attempts",
                    "type": "uint256"
                },
                {
                    "internalType": "bool",
                    "name": "valid",
                    "type": "bool"
                }
            ],
            "stateMutability": "view",
            "type": "function"
        }
    ],
    "bytecode": "0x608060405234801561001057600080fd5b50610ae9806100206000396000f3fe608060405234801561001057600080fd5b506004361061004c5760003560e01c80631c6151b0146100515780633ee9af681461006d578063c2cbe3ac14610089578063ddbfd8ef146100b9575b600080fd5b61006b60048036038101906100669190610621565b6100ed565b005b610087600480360381019061008291906106ac565b6102c2565b005b6100a3600480360381019061009e91906106ec565b6104fa565b6040516100b09190610728565b60405180910390f35b6100d360048036038101906100ce91906106ec565b61054d565b6040516100e4959493929190610793565b60405180910390f35b600073ffffffffffffffffffffffffffffffffffffffff1660008085815260200190815260200160002060000160009054906101000a900473ffffffffffffffffffffffffffffffffffffffff1673ffffffffffffffffffffffffffffffffffffffff1614610191576040517f08c379a000000000000000000000000000000000000000000000000000000000815260040161018890610843565b60405180910390fd5b6040518060a001604052803373ffffffffffffffffffffffffffffffffffffffff168152602001838152602001828152602001600081526020016001151581525060008085815260200190815260200160002060008201518160000160006101000a81548173ffffffffffffffffffffffffffffffffffffffff021916908373ffffffffffffffffffffffffffffffffffffffff16021790555060208201518160010155604082015181600201556060820151816003015560808201518160040160006101000a81548160ff0219169083151502179055509050503373ffffffffffffffffffffffffffffffffffffffff16837f205277be9ac92163fe2e90703802f84c6722bf45927714baa72ea9295c360ff684846040516102b5929190610863565b60405180910390a3505050565b60008060008481526020019081526020016000209050600073ffffffffffffffffffffffffffffffffffffffff168160000160009054906101000a900473ffffffffffffffffffffffffffffffffffffffff1673ffffffffffffffffffffffffffffffffffffffff160361036b576040517f08c379a0000000000000000000000000000000000000000000000000000000008152600401610362906108d8565b60405180910390fd5b8060040160009054906101000a900460ff166103bc576040517f08c379a00000000000000000000000000000000000000000000000000000000081526004016103b390610944565b60405180910390fd5b80600101544210610402576040517f08c379a00000000000000000000000000000000000000000000000000000000081526004016103f9906109b0565b60405180910390fd5b806002015481600301541061044c576040517f08c379a000000000000000000000000000000000000000000000000000000000815260040161044390610a1c565b60405180910390fd5b80600301600081548092919061046190610a6b565b9190505550816104995780600201548160030154106104985760008160040160006101000a81548160ff0219169083151502179055505b5b827f2e4756fcacb657b5312626a687937a8c8ef03c008aea6a39d8351b6703781313836040516104c99190610728565b60405180910390a281156104f55760008160040160006101000a81548160ff0219169083151502179055505b505050565b60008060008084815260200190815260200160002090508060040160009054906101000a900460ff1680156105325750806001015442105b8015610545575080600201548160030154105b915050919050565b60006020528060005260406000206000915090508060000160009054906101000a900473ffffffffffffffffffffffffffffffffffffffff16908060010154908060020154908060030154908060040160009054906101000a900460ff16905085565b600080fd5b6000819050919050565b6105c8816105b5565b81146105d357600080fd5b50565b6000813590506105e5816105bf565b92915050565b6000819050919050565b6105fe816105eb565b811461060957600080fd5b50565b60008135905061061b816105f5565b92915050565b60008060006060848603121561063a576106396105b0565b5b6000610648868287016105d6565b93505060206106598682870161060c565b925050604061066a8682870161060c565b9150509250925092565b60008115159050919050565b61068981610674565b811461069457600080fd5b50565b6000813590506106a681610680565b92915050565b600080604083850312156106c3576106c26105b0565b5b60006106d1858286016105d6565b92505060206106e285828601610697565b9150509250929050565b600060208284031215610702576107016105b0565b5b6000610710848285016105d6565b91505092915050565b61072281610674565b82525050565b600060208201905061073d6000830184610719565b92915050565b600073ffffffffffffffffffffffffffffffffffffffff82169050919050565b600061076e82610743565b9050919050565b61077e81610763565b82525050565b61078d816105eb565b82525050565b600060a0820190506107a86000830188610775565b6107b56020830187610784565b6107c26040830186610784565b6107cf6060830185610784565b6107dc6080830184610719565b9695505050505050565b600082825260208201905092915050565b7f506f6c69637920616c7265616479206578697374730000000000000000000000600082015250565b600061082d6015836107e6565b9150610838826107f7565b602082019050919050565b6000602082019050818103600083015261085c81610820565b9050919050565b60006040820190506108786000830185610784565b6108856020830184610784565b9392505050565b7f506f6c69637920646f6573206e6f742065786973740000000000000000000000600082015250565b60006108c26015836107e6565b91506108cd8261088c565b602082019050919050565b600060208201905081810360008301526108f1816108b5565b9050919050565b7f506f6c696379206973206e6f742076616c696400000000000000000000000000600082015250565b600061092e6013836107e6565b9150610939826108f8565b602082019050919050565b6000602082019050818103600083015261095d81610921565b9050919050565b7f506f6c6963792068617320657870697265640000000000000000000000000000600082015250565b600061099a6012836107e6565b91506109a582610964565b602082019050919050565b600060208201905081810360008301526109c98161098d565b9050919050565b7f4d617820617474656d7074732072656163686564000000000000000000000000600082015250565b6000610a066014836107e6565b9150610a11826109d0565b602082019050919050565b60006020820190508181036000830152610a35816109f9565b9050919050565b7f4e487b7100000000000000000000000000000000000000000000000000000000600052601160045260246000fd5b6000610a76826105eb565b91507fffffffffffffffffffffffffffffffffffffffffffffffffffffffffffffffff8203610aa857610aa7610a3c565b5b60018201905091905056fea264697066735822122031fe64620fc76fb43947592f4d678873e55a9e265bb26392ad5520f0bbcd0e2464736f6c63430008180033",
    "linkReferences": {},
    "deployedLinkReferences": {}
}